:10098D000000000000000000000000000001000158
:10099D000000000000010001000100010000000046
:1009AD000001000000000001000000000000000038
:1009BD000000000100010000000100000000000126
:1009CD000001000000000000000100000000000117
:1009DD000000000000000001000000000000000009
:1009ED0000000000000000000001000100010001F6
:1009FD0000000000000000000000000000000000EA
:100A0D0000000000000000010000000000010001D6
:100A1D0000010001000100010000000000000000C5
:100A2D0000010000000000000001000100000000B6
:100A3D0000000000000000000001000100000000A7
:100A4D000000000100010000000000000000000196
:100A5D000000000000000000000000000000000089
:100A6D000000000000000000000000000000000079
:100A7D000000000000000000000000000000000069
:100A8D000000000000000000000000000000000059
:100A9D000000000000000000000000000000000049
:100AAD000000000000000000000000000000000039
:100ABD000000000000000000000000000000000029
:100ACD000000000000000000000000000000000019
:100ADD000000000000000000000000000000000009
:0C0AED00000000000000000000000000FD
:100CBE00010D05010800020A0000010901010F00E3
:060CCE00010C00010E0004
:100CA000120C5730B40C30B50930B60630B703D348
:0E0CB0008001C392B3AD08AF0D12080080E5BD
:100C5700D2AFD2A9D2ABD2A8C2AAE4F5B8758CD8C4
:100C6700758AF0758DD8758BF0438911C28CC28E49
:050C7700D288D28A22A0
:03000300020C24C8
:100C2400C0E0E5097022750901F50F750D05F50899
:100C3400758CD8758AF0758DD8758BF0D28CC28E70
:100C4400C2A8F50AF50B8008D28CD28EC2A8D2AA0B
:030C5400D0E032BB
:03000B00020CD50F
:0F0CD500C28CC289C28BD2A8758CD8758AF032B6
:03001300020C7C60
:100C7C00C2AA20B403750F6120B503750F6220B6AC
:100C8C0003750F6320B703750F64750900850D0C90
:040C9C0085080E3287
:03001B00020AF9DD
:100AF900C0E0C0D0E50964017038C3E50B940AE58C
:100B09000A94004023E508701BE50D7010C2AA8500
:100B19000D0C85080EF509F50AF50B8057750809BE
:100B2900150D80501508804C050BE50B7056050A0C
:100B39008052C3E50B9464E50A9400403FE50DB487
:100B49000A08850C0D850E08802A750D0AE50F2403
:100B59009E600F1460111460132403701475080B40
:100B6900801275080C800D75080D800875080E80B7
:100B79000375080A750A00750B008008050BE50B5B
:0F0B89007002050A758DD8758BF0D0D0D0E03290
:1008000075F00EEFA4248DF582E5F03409F583E44C
:1008100093FA740193FBEA4B24FF929075F00EEF6C
:10082000A4248FF582E5F03409F583E493FA74018A
:1008300093FBEA4B24FF929175F00EEFA42491F5FF
:1008400082E5F03409F583E493FA740193FBEA4BF3
:1008500024FF929275F00EEFA42493F582E5F03414
:1008600009F583E493FA740193FBEA4B24FF929316
:1008700075F00EEFA42495F582E5F03409F583E4D4
:1008800093FA740193FBEA4B24FF929475F00EEFF8
:10089000A42497F582E5F03409F583E493FA740112
:1008A00093FBEA4B24FF929575F00EEFA42499F583
:1008B00082E5F03409F583E493FE740193FFEE4F73
:1008C00024FF9296C29775F00EEDA4248DF582E573
:1008D000F03409F583E493FE740193FFEE4F24FF97
:1008E00092A075F00EEDA4248FF582E5F03409F5A1
:1008F00083E493FE740193FFEE4F24FF92A175F001
:100900000EEDA42491F582E5F03409F583E493FE1D
:10091000740193FFEE4F24FF92A275F00EEDA42414
:1009200093F582E5F03409F583E493FE740193FFB7
:10093000EE4F24FF92A375F00EEDA42495F582E509
:10094000F03409F583E493FE740193FFEE4F24FF26
:1009500092A475F00EEDA42497F582E5F03409F524
:1009600083E493FE740193FFEE4F24FF92A575F08C
:100970000EEDA42499F582E5F03409F583E493FEA5
:0C098000740193FFEE4F24FF92A6D2A753
:01098C002248
:03000000020B9858
:0C0B9800787FE4F6D8FD75810F020BDFBA
:100BA400020CA0E493A3F8E493A34003F68001F2BB
:100BB40008DFF48029E493A3F85407240CC8C33352
:100BC400C4540F4420C8834004F456800146F6DF21
:100BD400E4800B0102040810204080900CBEE47EE7
:100BE400019360BCA3FF543F30E509541FFEE49316
:100BF400A360010ECF54C025E060A840B8E493A3DD
:100C0400FAE493A3F8E493A3C8C582C8CAC583CA07
:100C1400F0A3C8C582C8CAC583CADFE9DEE780BEBF
:010CD400001F
:00000001FF
