:10030000407924301912027800103FC0F9A4B09946
:0A0310009282F88090BF8883C6A196
:10005000780579007A007B017C007D007E0075A820
:100060008B75B800758911758CD8758AF0758DD827
:10007000758BF0C28CC28ED288D28A313F80FCEB65
:10008000600AD28CD28EC2A8D2AA801C7B017C00CE
:100090007805790085D88C85F08A85D88D85F08B98
:1000A000D28CC28EC2A87A0032C28CC289C28BD2D4
:1000B000A8758CD8758AF032C2AA30B40B30B50C52
:1000C00030B60D30B70E800E7C01800A7C028006AF
:1000D0007C0380027C047B00E8FDE9FE32EBB40186
:1000E00022EAB40A507A00E97016E8700CC2AAE855
:1000F000FDE9FE7B007A00803F790918803A80385C
:10010000198035EAB4642E7A00E8B40A06EDF8EEF8
:10011000F98025780ABC0104790B801CBC020479A3
:100120000C8015BC0304790D800EBC0404790E808C
:1001300007790A80030A8000758DD8758BF032E844
:100140003146E9314D2290030093F5902290030B44
:0401500093F5A02261
:03000000020050AB
:0300030002007F79
:03000B000200A947
:030013000200B830
:03001B000200DD03
:00000001FF
